:03000000020834BF
:0C083400787FE4F6D8FD75812102087B76
:10037300726174696F3A25640D0A00737973746549
:100383006D20626567696E0D0A0025642025640D82
:100393000A0000C000F900A400B000990092008296
:1003A30000F8008000900088008300C600A100864A
:1003B300008E03E803F804070417042704360446F1
:1003C3000456046504750484049404A304B304C2AA
:1003D30004D104E104F004FF050E051D052C053BC3
:1003E30005490558056705750584059205A005AE01
:1003F30005BC05CA05D705E505F20600060D061A74
:10040300062706340640064D065906650671067D25
:100413000689069506A006AB06B606C106CC06D627
:1004230006E006EB06F406FE07080711071A072382
:10043300072C0734073D0745074D0754075C07633F
:10044300076A07710777077E0784078A078F07956F
:10045300079A079F07A407A807AD07B107B407B812
:1004630007BB07BE07C107C407C607C807CA07CC2F
:1004730007CD07CE07CF07D007D007D007D007D0C7
:1004830007CF07CE07CD07CC07CA07C807C607C4DF
:1004930007C107BE07BB07B807B407B107AD07A875
:1004A30007A4079F079A0795078F078A0784077E84
:1004B30007770771076A0763075C0754074D07450A
:1004C300073D0734072C0723071A0711070806FE01
:1004D30006F406EB06E006D606CC06C106B606AB66
:1004E30006A006950689067D067106650659064D22
:1004F300064006340627061A060D060005F205E532
:1005030005D705CA05BC05AE05A00592058405758A
:10051300056705580549053B052C051D050E04FF18
:1005230004F004E104D104C204B304A304940484D6
:1005330004750465045604460436042704170407A7
:1005430003F803E803D803C903B903A9039A038A89
:10055300037A036B035B034C033C032D031D030E60
:1005630002FF02EF02E002D102C202B302A402952B
:10057300028702780269025B024C023E02300222C9
:100583000214020601F901EB01DE01D001C301B639
:1005930001A9019C019001830177016B015F015364
:1005A3000147013B01300125011A010F010400FA43
:1005B30000F000E500DC00D200C800BF00B600ADCB
:1005C30000A4009C0093008B0083007C0074006DEA
:1005D3000066005F00590052004C00460041003B9A
:1005E30000360031002C00280023001F001C0018D7
:1005F30000150012000F000C000A0008000600049A
:1006030000030002000100000000000000000000E1
:10061300000100020003000400060008000A000CA9
:10062300000F001200150018001C001F00230028F3
:10063300002C00310036003B00410046004C0052C4
:100643000059005F0066006D0074007C0083008B1E
:100653000093009C00A400AD00B600BF00C800D208
:1006630000DC00E500F000FA0104010F011A012586
:100673000130013B01470153015F016B01770183A6
:100683000190019C01A901B601C301D001DE01EB78
:1006930001F90206021402220230023E024C025BFE
:1006A300026902780287029502A402B302C202D150
:1006B30002E002EF02FF030E031D032D033C034C74
:1006C300035B036B037A038A039A03A903B903C980
:0406D30003D803E85D
:100A840041002A0042002B000042002800004200DE
:080A94002D000042002F0000BC
:0A0AC100AE078E993099FDC299220C
:1009F6003395E0FEEF25E0FFEE33FE74952FF5828A
:0E0A060074033EF583740193F5807F027E0039
:100A1400E4FDFCC3ED9FEC9E5015E4FBFA0BBB0018
:0F0A2400010AEB64724A70F50DBD00010C80E40D
:010A330022A0
:100AB100438901758CFE758A33D2A9C28CD2AF22CB
:070ACB00D2A8D288D2AF22AD
:100A9D00759850438920758780758DFA758BFAD2BC
:040AAD008ED2AF2214
:100A6800D2A1D2A07580FFD2A3D2A2D290C291C245
:0C0A780092C293C296D297C2B5C2B622B9
:1009300020A1327F057E00120A1420A12590002AF2
:10094000E004F0E0B464037463F07BFF7A0379732E
:1009500090002AE0FE3395E0900003F0A3CEF01261
:10096000007930A1FD20A0317F057E00120A1420FD
:10097000A02490002AE014F0E0B4FF02E4F07BFF32
:100980007A03797390002AE0FE3395E0900003F03B
:0A099000A3CEF012007930A0FD2282
:100A3400EF75F00A1206D7AEF0A906EF75F064124E
:100A440006D7AFF0EF75F00A1206D7FFC2A312095A
:100A5400F67580FFD2A3C2A2AF01EF1209F675802A
:030A6400FFD2A21C
:010A6700226C
:10099A00120A9D7BFF7A03797E120079120AB1123C
:1009AA000ACB120A6812093090002AE0FF120A34B0
:1009BA00C390002EE094D090002DE0940740E6E426
:1009CA00F0A3F07BFF7A03798D900028E0FFA3E083
:1009DA00900003CFF0A3EFF090002BE0FFA3E0908C
:0C09EA000005CFF0A3EFF012007980B9F7
:03000B0002079752
:10079700C0E0C083C082C0D075D000C004C005C00F
:1007A70006C007758CFE758A3390002EE004F07042
:1007B7000690002DE004F090002FE07004A3E064A1
:1007C70001700690002FF0A3F090002BE0FEA3E04D
:1007D700FF900028E0FCA3E0FDD39FEC9E4017C2EA
:1007E700B5B2B430B402C2B490002CE02409F09042
:1007F700002BE03400F090002BE0FEA3E0FFC3EDF8
:100807009FEC9E5017D2B5B2B420B402D2B4900078
:100817002CE024F7F090002BE034FFF0D007D0064F
:0D082700D005D004D0D0D082D083D0E032F4
:030003000208C030
:1008C000C0E0C083C082C0D030B32E900028E0B416
:1008D0000E13A3E0B4100E900028E4F0A3F09000F3
:1008E0002FF0A304F0900029E02409F0900028E004
:1008F0003400F0C2B5B2B4802E900028E07002A39C
:10090000E07012900028740EF0A37410F090002F85
:10091000E4F0A304F0900029E024F7F0900028E030
:1009200034FFF0D2B5B2B4D0D0D082D083D0E03290
:1008400002099AE493A3F8E493A34003F68001F22B
:1008500008DFF48029E493A3F85407240CC8C333B9
:10086000C4540F4420C8834004F456800146F6DF88
:10087000E4800B0102040810204080900A84E47E8A
:10088000019360BCA3FF543F30E509541FFEE4937D
:10089000A360010ECF54C025E060A840B8E493A344
:1008A000FAE493A3F8E493A3C8C582C8CAC583CA6F
:1008B000F0A3C8C582C8CAC583CADFE9DEE780BE27
:010A9C000059
:1006D700C2D530F707B2D563F0FF05F030E70CB2AB
:1006E700D5F4048463F0FF05F080018430D502F46B
:0206F7000422DB
:10000E00E5082403F582E43400F583E00508229028
:10001E000000300703900003E475F001120751024F
:10002E0006F92000E97F2ED2008018EF540F24909D
:10003E00D43440D4FF30040BEF24BFB41A00500365
:10004E002461FFE50960021509050CE50C70020537
:10005E000B30070E900000E475F001120751EF020D
:10006E00073F020AC17403D2078003E4C207F508F2
:10007E00900000120768E4F509F50BF50CE5096030
:10008E00077F2012005180F5750AFFC201C200C21F
:10009E0002C203C205C206C20812001DFF700D3057
:1000AE0007057F00120062AF0CAE0B22B4255FC2B3
:1000BE00D5C20412001DFF24D0B40A00501A75F0E8
:1000CE000A780930D50508B6FF0106C6A426F62023
:1000DE00D5047002D20380D924CFB41A00EF500495
:1000EE00C2E5D204020263D20180C6D20080C0D221
:1000FE000280BCD2D580BAD20580B47F20120051C6
:10010E002002077401B5090040F112000EFF120023
:10011E005102008BD208D206809512000EFB1200FF
:10012E000EFA12000EF94A4B700679347A037BFFF1
:10013E0020022EE509602A7E008E8275830012074A
:10014E001260060EEE650A70F0C2D5EBC0E0EAC092
:10015E00E0E9C0E0EE1202AAD0E0F9D0E0FAD0E079
:10016E00FB1206F9FF60AAEBC0E0EAC0E0E9C0E0CE
:10017E00120051D0E02401F9D0E03400FAD0E0FBB7
:10018E00E50A0460DCD50AD980877BFF7A0279A65E
:10019E00D202809C791080027908C206C2088008BB
:1001AE00D2D5790A8004790AC2D5E50A047002F51F
:1001BE000AE4FAFDFEFF12000EFC7B08200113126A
:1001CE00000EFD7B1030000A12000EFE12000EFF14
:1001DE007B20EC3382D592D55013C3E43000069FBA
:1001EE00FFE49EFEE42001039DFDE49CFCE4CBF8BD
:1001FE00C201EC700CCFCECDCCE824F8F870F380B1
:10020E0017C3EF33FFEE33FEED33FDEC33FCEB3370
:10021E00FB994002FB0FD8E9EB300105F8D0E0C4A2
:10022E0048B201C0E00AEC4D4E4F78207B0070C200
:10023E00EAB50A0040BCC0E01202ACD0F0D0E0201B
:10024E000104C4C0E0C4B201C0F012003AD0F0D52F
:10025E00F0EB02008B12077101285301A25800F92E
:10026E004C00F54201A64F01AE4401AE49010E43CA
:08027E0001B4550198460198F6
:100286004501984703545000FD2D01012E01242BF2
:10029600010523012220033D2A00BD480000011C60
:1002A6003F3F3F00790AA2D5200314300509B91053
:1002B600020404B9080104A2D52006025001042054
:1002C60002689202B509005034C0E07F203003195D
:1002D6007F30A20272067205500F120303C202C2D9
:1002E60006C205C2087F30800F300503E9C0E01260
:1002F6000051300503D0E0F9D0E0B509CC30051740
:100306007F30B9100C1200517F583004077F788077
:1003160003B908031200513002057F2D0200517FF8
:10032600202008F87F2B2006F322920280CF286E29
:10033600756C6C2900D20112000E3001F8C20178EA
:100346000930D50108F60200BD2D50434958120068
:100356000E2403B405004001E490034F93120042BB
:0D036600743A120042D2037509040201A28C
:1006F900BB010689828A83E0225002E722BBFE02FF
:09070900E32289828A83E4932231
:10071200BB010CE58229F582E5833AF583E022509C
:1007220006E92582F8E622BBFE06E92582F8E222E6
:0D073200E58229F582E5833AF583E4932200
:10073F00BB010689828A83F0225002F722BBFE0199
:02074F00F32293
:10075100F8E0FBA3A3E0F925F0F0E5821582700231
:070761001583E0FA38F022D5
:09076800EBF0A3EAF0A3E9F02292
:10077100D083D082F8E4937012740193700DA3A317
:1007810093F8740193F5828883E47374029368602B
:06079100EFA3A3A380DF2B
:00000001FF
