:03000000020ACF22
:0C0ACF00787FE4F6D8FD758121020B163B
:10037300726174696F3A25640D0A00737973746549
:100383006D20626567696E0D0A0025750925750D77
:100393000A0000C000F900A400B000990092008296
:1003A30000F8008000900088008300C600A100864A
:1003B300008E03E803F804070417042704360446F1
:1003C3000456046504750484049404A304B304C2AA
:1003D30004D104E104F004FF050E051D052C053BC3
:1003E30005490558056705750584059205A005AE01
:1003F30005BC05CA05D705E505F20600060D061A74
:10040300062706340640064D065906650671067D25
:100413000689069506A006AB06B606C106CC06D627
:1004230006E006EB06F406FE07080711071A072382
:10043300072C0734073D0745074D0754075C07633F
:10044300076A07710777077E0784078A078F07956F
:10045300079A079F07A407A807AD07B107B407B812
:1004630007BB07BE07C107C407C607C807CA07CC2F
:1004730007CD07CE07CF07D007D007D007D007D0C7
:1004830007CF07CE07CD07CC07CA07C807C607C4DF
:1004930007C107BE07BB07B807B407B107AD07A875
:1004A30007A4079F079A0795078F078A0784077E84
:1004B30007770771076A0763075C0754074D07450A
:1004C300073D0734072C0723071A0711070806FE01
:1004D30006F406EB06E006D606CC06C106B606AB66
:1004E30006A006950689067D067106650659064D22
:1004F300064006340627061A060D060005F205E532
:1005030005D705CA05BC05AE05A00592058405758A
:10051300056705580549053B052C051D050E04FF18
:1005230004F004E104D104C204B304A304940484D6
:1005330004750465045604460436042704170407A7
:1005430003F803E803D803C903B903A9039A038A89
:10055300037A036B035B034C033C032D031D030E60
:1005630002FF02EF02E002D102C202B302A402952B
:10057300028702780269025B024C023E02300222C9
:100583000214020601F901EB01DE01D001C301B639
:1005930001A9019C019001830177016B015F015364
:1005A3000147013B01300125011A010F010400FA43
:1005B30000F000E500DC00D200C800BF00B600ADCB
:1005C30000A4009C0093008B0083007C0074006DEA
:1005D3000066005F00590052004C00460041003B9A
:1005E30000360031002C00280023001F001C0018D7
:1005F30000150012000F000C000A0008000600049A
:1006030000030002000100000000000000000000E1
:10061300000100020003000400060008000A000CA9
:10062300000F001200150018001C001F00230028F3
:10063300002C00310036003B00410046004C0052C4
:100643000059005F0066006D0074007C0083008B1E
:100653000093009C00A400AD00B600BF00C800D208
:1006630000DC00E500F000FA0104010F011A012586
:100673000130013B01470153015F016B01770183A6
:100683000190019C01A901B601C301D001DE01EB78
:1006930001F90206021402220230023E024C025BFE
:1006A300026902780287029502A402B302C202D150
:1006B30002E002EF02FF030E031D032D033C034C74
:1006C300035B036B037A038A039A03A903B903C980
:0406D30003D803E85D
:100C1D0041002A014200310000420028000042003C
:100C2D00350000420037000042002F1F4042002DCA
:100C3D001F404200330000410039FF41003A384265
:040C4D00002BF83050
:0A0CC600AE078E993099FDC2992205
:100BDF003395E0FEEF25E0FFEE33FE74952FF5829F
:0E0BEF0074033EF583740193F5807F027E004F
:100BFD00E4FDFCC3ED9FEC9E5015E4FBFA0BBB002E
:0F0C0D00010ABA01F8BBF4F50DBD00010C80E43B
:010C1C0022B5
:100CB600438901758CF8758A30D2A9D28CD2AF22BD
:070CD000D2A8D288D2AF22A6
:100CA200759850438920758780758DE6758BE6D2DD
:040CB2008ED2AF220D
:100C8600D2A1D2A07580FFD2A3D2A2C290D291D215
:0C0C960092D293D296C297C2B5C2B62289
:1006D70030A1030207867F057E00120BFD30A103C0
:1006E70002078390002AE004F0E0B40B03740AF0D9
:1006F7007BFF7A03797390002AE0FE3395E0900040
:1007070003F0A3CEF012007990002AE0FF3395E0C2
:10071700FE900028E0FCA3E0FD120857EF2405FF38
:10072700E43EFE7C007D0A120869900033EEF0A3D8
:10073700EFF07C017D90120869ED25E0FFEC33FEB8
:1007470074B52FF58274033EF58374019325E0FE9B
:10075700E4933390002FF0A3CEF090002FE0FEA398
:10076700E07802C333CE33CED8F9F0EE90002FF005
:10077700E0FFA3E090002DCFF0A3EFF030A1FD3014
:10078700A0030208347F057E00120BFD30A0030290
:10079700083190002AE014F0E0B4FF02E4F07BFF98
:1007A7007A03797390002AE0FE3395E0900003F016
:1007B700A3CEF012007990002AE0FF3395E0FE9077
:1007C7000028E0FCA3E0FD120857EF2405FFE43EF4
:1007D700FE7C007D0A120869900033EEF0A3EFF06B
:1007E7007C017D90120869ED25E0FFEC33FE74B5BE
:1007F7002FF58274033EF58374019325E0FEE4939D
:100807003390002FF0A3CEF090002FE0FEA3E07806
:1008170002C333CE33CED8F9F0EE90002FF0E0FFCD
:0E082700A3E090002DCFF0A3EFF030A0FD2253
:100C5200EF75F00A120835AEF0A906EF75F06412CE
:100C62000835AFF0EF75F00A120835FFC2A3120B78
:100C7200DF7580FFD2A3C2A2AF01EF120BDF758036
:030C8200FFD2A2FC
:010C8500224C
:100A1700120CA27BFF7A03797E120079120CB612B0
:100A27000CD0120C861206D790002AE0FF120C5247
:100A3700C3900036E09464900035E09400402BE4C6
:100A4700F0A3F07BFF7A03798D900028E0FFA3E005
:100A5700900003CFF0A3EFF090002DE0FFA3E0900C
:100A67000005CFF0A3EFF0120079C390002EE094B9
:100A77006490002DE09400400DD3A3E0941C9000F7
:100A87002DE0943E400C90003974F8F0A37430F0D8
:100A97008093C390002EE0949090002DE094014045
:100AA7000DD3A3E094F090002DE0943C400D90000E
:100AB7003974FBF0A374B4F0020A2C90003974FF68
:080AC700F0A37438F0020A2CC0
:03000B00020B5B8A
:100B5B00C0E0C083C082C0D075D000C006C0079073
:100B6B000039E0F58CA3E0F58A900036E004F070D4
:100B7B0006900035E004F090002DE0FEA3E0FFD3DB
:100B8B00900030E09F90002FE09E4014C2B5B2B4AD
:100B9B0090002EE004F0702F90002DE004F08027E1
:100BAB0090002DE0FEA3E0FFC3900030E09F90008B
:100BBB002FE09E5012D2B5B2B490002EE024FFF07D
:100BCB0090002DE034FFF0D007D006D0D0D082D0EB
:040BDB0083D0E032B1
:0300030002095C93
:10095C00C0E0C0F0C083C082C0D075D000C000C061
:10096C0004C005C006C00720B303020A0290002889
:10097C00E0B40F0CA3E0B4A007900028E4F0A3F0BF
:10098C00900029E004F07006900028E004F090003C
:10099C002AE0FF3395E0FE900028E0FCA3E0FD1276
:1009AC000857EF2405FFE43EFE7C007D0A1208691F
:1009BC00900033EEF0A3EFF07C017D90120869ED0E
:1009CC0025E0FFEC33FE74B52FF58274033EF583FE
:1009DC0074019325E0FEE4933390002FF0A3CEF046
:1009EC0090002FE0FEA3E07802C333CE33CED8F9CB
:1009FC00F0EE90002FF0D007D006D005D004D00038
:0B0A0C00D0D0D082D083D0F0D0E032F8
:100ADB00020A17E493A3F8E493A34003F68001F210
:100AEB0008DFF48029E493A3F85407240CC8C3331C
:100AFB00C4540F4420C8834004F456800146F6DFEB
:100B0B00E4800B0102040810204080900C1DE47E51
:100B1B00019360BCA3FF543F30E509541FFEE493DF
:100B2B00A360010ECF54C025E060A840B8E493A3A6
:100B3B00FAE493A3F8E493A3C8C582C8CAC583CAD1
:100B4B00F0A3C8C582C8CAC583CADFE9DEE780BE89
:010C510000A2
:10083500C2D530F707B2D563F0FF05F030E70CB24B
:10084500D5F4048463F0FF05F080018430D502F40B
:0208550004227B
:10085700EF8DF0A4A8F0CF8CF0A428CE8DF0A42EB5
:02086700FE226F
:10086900BC000BBE0029EF8DF084FFADF022E4CC73
:10087900F875F008EF2FFFEE33FEEC33FCEE9DEC3C
:10088900984005FCEE9DFE0FD5F0E9E4CEFD22ED82
:10089900F8F5F0EE8420D21CFEADF075F008EF2FCC
:1008A900FFED33FD4007985006D5F0F222C398FDBD
:0508B9000FD5F0EA225A
:10000E00E5082403F582E43400F583E00508229028
:10001E000000300703900003E475F0011209160288
:10002E0008BE2000E97F2ED2008018EF540F2490D6
:10003E00D43440D4FF30040BEF24BFB41A00500365
:10004E002461FFE50960021509050CE50C70020537
:10005E000B30070E900000E475F001120916EF0246
:10006E000904020CC67403D2078003E4C207F50824
:10007E0090000012092DE4F509F50BF50CE5096069
:10008E00077F2012005180F5750AFFC201C200C21F
:10009E0002C203C205C206C20812001DFF700D3057
:1000AE0007057F00120062AF0CAE0B22B4255FC2B3
:1000BE00D5C20412001DFF24D0B40A00501A75F0E8
:1000CE000A780930D50508B6FF0106C6A426F62023
:1000DE00D5047002D20380D924CFB41A00EF500495
:1000EE00C2E5D204020263D20180C6D20080C0D221
:1000FE000280BCD2D580BAD20580B47F20120051C6
:10010E002002077401B5090040F112000EFF120023
:10011E005102008BD208D206809512000EFB1200FF
:10012E000EFA12000EF94A4B700679347A037BFFF1
:10013E0020022EE509602A7E008E82758300120849
:10014E00D760060EEE650A70F0C2D5EBC0E0EAC0CD
:10015E00E0E9C0E0EE1202AAD0E0F9D0E0FAD0E079
:10016E00FB1208BEFF60AAEBC0E0EAC0E0E9C0E007
:10017E00120051D0E02401F9D0E03400FAD0E0FBB7
:10018E00E50A0460DCD50AD980877BFF7A0279A65E
:10019E00D202809C791080027908C206C2088008BB
:1001AE00D2D5790A8004790AC2D5E50A047002F51F
:1001BE000AE4FAFDFEFF12000EFC7B08200113126A
:1001CE00000EFD7B1030000A12000EFE12000EFF14
:1001DE007B20EC3382D592D55013C3E43000069FBA
:1001EE00FFE49EFEE42001039DFDE49CFCE4CBF8BD
:1001FE00C201EC700CCFCECDCCE824F8F870F380B1
:10020E0017C3EF33FFEE33FEED33FDEC33FCEB3370
:10021E00FB994002FB0FD8E9EB300105F8D0E0C4A2
:10022E0048B201C0E00AEC4D4E4F78207B0070C200
:10023E00EAB50A0040BCC0E01202ACD0F0D0E0201B
:10024E000104C4C0E0C4B201C0F012003AD0F0D52F
:10025E00F0EB02008B12093601285301A25800F967
:10026E004C00F54201A64F01AE4401AE49010E43CA
:08027E0001B4550198460198F6
:100286004501984703545000FD2D01012E01242BF2
:10029600010523012220033D2A00BD480000011C60
:1002A6003F3F3F00790AA2D5200314300509B91053
:1002B600020404B9080104A2D52006025001042054
:1002C60002689202B509005034C0E07F203003195D
:1002D6007F30A20272067205500F120303C202C2D9
:1002E60006C205C2087F30800F300503E9C0E01260
:1002F6000051300503D0E0F9D0E0B509CC30051740
:100306007F30B9100C1200517F583004077F788077
:1003160003B908031200513002057F2D0200517FF8
:10032600202008F87F2B2006F322920280CF286E29
:10033600756C6C2900D20112000E3001F8C20178EA
:100346000930D50108F60200BD2D50434958120068
:100356000E2403B405004001E490034F93120042BB
:0D036600743A120042D2037509040201A28C
:1008BE00BB010689828A83E0225002E722BBFE0238
:0908CE00E32289828A83E493226B
:1008D700BB010CE58229F582E5833AF583E02250D6
:1008E70006E92582F8E622BBFE06E92582F8E22220
:0D08F700E58229F582E5833AF583E493223A
:10090400BB010689828A83F0225002F722BBFE01D2
:02091400F322CC
:10091600F8E0FBA3A3E0F925F0F0E582158270026A
:070926001583E0FA38F0220E
:09092D00EBF0A3EAF0A3E9F022CB
:10093600D083D082F8E4937012740193700DA3A350
:1009460093F8740193F5828883E473740293686064
:06095600EFA3A3A380DF64
:00000001FF
